:100000000C948B000C94AA000C94AA000C94AA00E7
:100010000C94AA000C94AA000C94AA000C94AA00B8
:100020000C94AA000C94AA000C94AA000C94AA00A8
:100030000C94AA000C9451010C94AA000C94AA00F0
:100040000C94AA000C94AA000C94AA000C94AA0088
:100050000C94AA000C94AA000C94AA000C94AA0078
:100060000C94AA000C94AA000C94AA000C94AA0068
:100070000C94AA000C94AA000C94AA000C94AA0058
:100080000C94AA000C94AA000C94AA005C03A00390
:10009000A003A003A003A003A003A003A003A00348
:1000A000A003A003A003A003A003A003A003A00338
:1000B000A003A003A003A003A003A003A003A00328
:1000C000A003A003A003A003A003A003A003A00318
:1000D000A0039C03A003A003A003A003A003A0030C
:1000E0009403A003A003A003A003A003980360034C
:1000F000640368036C037003740378037C03800358
:10010000A003A003A003A003A003A003A0038403F3
:1001100088038C03900311241FBECFEFD0E4DEBF11
:10012000CDBF11E0A0E0B1E0E0EEFAE000E00BBFEF
:1001300002C007900D92A231B107D9F721E0A2E1E8
:10014000B1E001C01D92AF32B207E1F70E94D303C4
:100150000C946E050C940000CF93DF9300D01F9297
:10016000CDB7DEB789837B836A8389818A3031F496
:100170008A819B81BC018DE00E94AC0080EC90E004
:10018000FC018081882F90E080729927892BB1F340
:1001900086EC90E02981FC01208380E090E00F90C4
:1001A0000F900F90DF91CF910895CF93DF9300D000
:1001B00000D0CDB7DEB769837A838B839C83898136
:1001C0009A81AB81BC8180930E0190930F01A09323
:1001D0001001B093110180910E0190910F01A09137
:1001E0001001B09111018093130190931401A09319
:1001F0001501B093160100000F900F900F900F9013
:10020000DF91CF910895CF93DF93CDB7DEB781E82B
:1002100090E02BE0FC01208388E890E02DE730E0BF
:10022000FC01318320838FE690E022E0FC012083F3
:1002300084E890E0FC011182108280910E0190917F
:100240000F01A0911001B0911101809313019093BF
:100250001401A0931501B09316018FE590E02FE5EE
:1002600030E0F90120812068FC0120830000DF914B
:10027000CF910895CF93DF93CDB7DEB781E890E0BB
:10028000FC0110820000DF91CF910895CF93DF939E
:10029000CDB7DEB781E0809312010000DF91CF91EE
:1002A00008951F920F9200905F000F92112400900A
:1002B0005B000F922F933F934F935F936F937F93C6
:1002C0008F939F93AF93BF93EF93FF93CF93DF935E
:1002D000CDB7DEB78091130190911401A091150163
:1002E000B09116010197A109B10980931301909370
:1002F0001401A0931501B093160180911301909100
:100300001401A0911501B0911601892B8A2B8B2B1A
:1003100091F40E94460180910E0190910F01A091ED
:100320001001B09111018093130190931401A093D7
:100330001501B09316010000DF91CF91FF91EF916D
:10034000BF91AF919F918F917F916F915F914F91ED
:100350003F912F910F9000925B000F9000925F00F1
:100360000F901F901895CF93DF9300D01F92CDB7B9
:10037000DEB789836A834B838B81882371F08A81FE
:10038000282F30E081E090E002C0880F991F2A9565
:10039000E2F7982F8981892B0EC08A81282F30E0BF
:1003A00081E090E002C0880F991F2A95E2F7982F0C
:1003B0009095898189230F900F900F90DF91CF91B5
:1003C0000895CF93DF9300D0CDB7DEB789836A83DA
:1003D0008A81282F30E081E090E002C0880F991FC9
:1003E0002A95E2F7982F898189230F900F90DF914A
:1003F000CF9108950F931F93CF93DF93CDB7DEB7BF
:1004000008E210E040E064E08FEF0E94B301F801E1
:100410008083000086E290E0FC018081809560E0AE
:100420000E94E101882311F081E3D3C086E290E0CD
:10043000FC018081809561E00E94E101882311F038
:1004400084E3C7C086E290E0FC018081809562E091
:100450000E94E101882311F087E3BBC086E290E0AF
:10046000FC018081809563E00E94E101882311F006
:100470008AE2AFC008E210E040E065E08FEF0E9442
:10048000B301F8018083000086E290E0FC018081E6
:10049000809560E00E94E101882311F082E399C019
:1004A00086E290E0FC018081809561E00E94E1019C
:1004B000882311F085E38DC086E290E0FC01808105
:1004C000809562E00E94E101882311F088E381C0F9
:1004D00086E290E0FC018081809563E00E94E1016A
:1004E000882311F080E375C008E210E040E066E088
:1004F0008FEF0E94B301F8018083000086E290E054
:10050000FC018081809560E00E94E101882311F068
:1005100083E35FC086E290E0FC018081809561E02A
:100520000E94E101882311F086E353C086E290E047
:10053000FC018081809562E00E94E101882311F036
:1005400089E347C086E290E0FC018081809563E00A
:100550000E94E101882311F083E23BC008E210E031
:1005600040E067E08FEF0E94B301F8018083000054
:1005700086E290E0FC018081809560E00E94E101CC
:10058000882311F081E425C086E290E0FC0180819F
:10059000809561E00E94E101882311F082E419C096
:1005A00086E290E0FC018081809562E00E94E1019A
:1005B000882311F083E40DC086E290E0FC01808185
:1005C000809563E00E94E101882311F084E401C07A
:1005D00080E0DF91CF911F910F910895CF93DF932A
:1005E000CDB7DEB72C970FB6F894DEBF0FBECDBFE8
:1005F0006D837E838F83988729873A874B875C87B3
:100600008D819E81AF81B88529853A854B855C8532
:10061000BC01CD010E944305DC01CB0189839A8393
:10062000AB83BC8389819A81AB81BC81892B8A2B66
:100630008B2B29F489859A85AB85BC8511C089856A
:100640009A85AB85BC858D839E83AF83B88789816E
:100650009A81AB81BC8189879A87AB87BC87D0CFD1
:10066000BC01CD012C960FB6F894DEBF0FBECDBFF6
:10067000DF91CF910895CF93DF9300D01F92CDB734
:10068000DEB79B838A830E94FA0189838981882F40
:1006900090E0092E000CAA0BBB0B40E050E024E4D4
:1006A00030E0841B950B2817390708F449C08A5B92
:1006B0009F4FFC010C9465058FE180932D0144C090
:1006C00081E880932D0140C082E880932D013CC0D9
:1006D00083E880932D0138C084E880932D0134C0D5
:1006E00085E880932D0130C086E880932D012CC0D1
:1006F00087E880932D0128C088E880932D0124C0CD
:1007000089E880932D0120C08AE880932D011CC0C8
:100710008BE880932D0118C08CE880932D0114C0C4
:100720008DE880932D0110C08EE880932D010CC0C0
:1007300080E880932D0108C08FE880932D0104C0CC
:100740008BE180932D0100008A819B810F900F9097
:100750000F90DF91CF910895CF93DF9300D01F9238
:10076000CDB7DEB79B838A838A819B81892B19F45D
:100770001B821A8203C01B821A8200008A819B811D
:10078000892B21F480912D018983000085E290E07E
:100790002981FC0120838A819B810F900F900F900B
:1007A000DF91CF9108950F931F93CF93DF93CDB730
:1007B000DEB72D970FB6F894DEBF0FBECDBF84E233
:1007C00090E02FEFFC01208385E290E0FC01108295
:1007D00087E290E020EFFC01208388E290E02FE0A8
:1007E000FC01208387E191E09B878A8782E291E088
:1007F0009D878C8782E090E098878F838FEF898731
:1008000089858093170184E190E0A0E0B0E08093B7
:10081000180190931901A0931A01B0931B018091C4
:10082000180190911901A0911A01B0911B018093B8
:100830001C0190931D01A0931E01B0931F018BE337
:1008400093E0909321018093200189858093220178
:1008500084E190E0A0E0B0E0809323019093240134
:10086000A0932501B093260180912301909124014A
:10087000A0912501B0912601809327019093280132
:10088000A0932901B0932A018CEA93E090932C0164
:1008900080932B018A859B85FC0181819281A381B4
:1008A000B4818B839C83AD83BE8381E090E09A8387
:1008B000898325C089819A81880F991F9E012F5FA6
:1008C0003F4F820F931F0996FC0180819181FC01AB
:1008D00021813281438154818B819C81AD81BE8194
:1008E000BC01CD010E94EE02DC01CB018B839C8315
:1008F000AD83BE8389819A8101969A8389832981F8
:100900003A818F81988528173907A0F28B819C81C5
:10091000AD81BE81BC01CD010E94D5000E940301C2
:100920001A821982A0C089819A81880F991F9E011D
:100930002F5F3F4F820F931F0996FC0180819181A9
:10094000FC01258136814781508589819A81880FF4
:10095000991FBE016F5F7F4F860F971F0996FC019D
:1009600080819181FC0181819281A381B4812817CA
:1009700039074A075B0709F045C089819A81880FCA
:10098000991F9E012F5F3F4F820F931F0996FC0115
:100990000081118189819A81880F991F9E012F5FA3
:1009A0003F4F820F931F0996FC0180819181FC01CA
:1009B0002185328589819A81880F991FAE014F5F09
:1009C0005F4F840F951F0996FC0180819181FC0186
:1009D0008081082E000C990BF9010995F80180839C
:1009E00089819A81880F991F9E012F5F3F4F820F47
:1009F000931F0996FC0180819181FC01158216826A
:100A00001782108689819A81880F991F9E012F5F16
:100A10003F4F820F931F0996FC016081718189818C
:100A20009A81880F991F9E012F5F3F4F820F931F5E
:100A30000996FC0180819181FC01258136814781E5
:100A400050858B819C81AD81BE81820F931FA41F35
:100A5000B51FFB0185839683A783B08789819A811F
:100A600001969A83898329813A818F8198852817F5
:100A7000390708F458CF0000809112018823E1F370
:100A8000109212014DCFA1E21A2EAA1BBB1BFD0131
:100A90000DC0AA1FBB1FEE1FFF1FA217B307E4075D
:100AA000F50720F0A21BB30BE40BF50B661F771FB5
:100AB000881F991F1A9469F7609570958095909595
:100AC0009B01AC01BD01CF010895EE0FFF1F002473
:100AD000001C0BBE0790F691E02D0994F894FFCF0F
:100AE0000000000200000000AC0000000000010057
:020AF000000004
:00000001FF
